:020000040800F2
:10000000005000200D240008252200082D220008A1
:10001000352200083D2200084522000800000000AB
:100020000000000000000000000000004D22000859
:100030005922000800000000652200087122000813
:1000400055240008552400085524000855240008AC
:10005000552400085524000855240008552400089C
:10006000552400085524000855240008552400088C
:10007000552400085524000855240008552400087C
:10008000552400085524000855240008552400086C
:10009000552400085524000855240008552400085C
:1000A000552400085524000855240008552400084C
:1000B000552400085524000855240008552400083C
:1000C000552400085524000855240008552400082C
:1000D000552400085524000855240008552400081C
:1000E000552400085524000855240008000000008D
:1000F0000000000000000000000000000000000000
:0C01000000000000000000005FF808F1A3
:1001100010B5054C237833B9044B13B10448AFF341
:1001200000800123237010BDE801002000000000C2
:10013000048B000808B5034B1BB103490348AFF318
:10014000008008BD00000000EC010020048B0008C6
:10015000034613F8012B002AFBD1181A0138704707
:1001600081F0004102E000BF83F0004330B54FEA68
:1001700041044FEA430594EA050F08BF90EA020FD5
:100180001FBF54EA000C55EA020C7FEA645C7FEA68
:10019000655C00F0E2804FEA5454D4EB5555B8BF8B
:1001A0006D420CDD2C4480EA020281EA030382EAFC
:1001B000000083EA010180EA020281EA0303362D8E
:1001C00088BF30BD11F0004F4FEA01314FF4801C61
:1001D0004CEA113102D0404261EB410113F0004F73
:1001E0004FEA03334CEA133302D0524263EB43032A
:1001F00094EA050F00F0A780A4F10104D5F1200EC8
:100200000DDB02FA0EFC22FA05F2801841F1000122
:1002100003FA0EF2801843FA05F359410EE0A5F1F6
:1002200020050EF1200E012A03FA0EFC28BF4CF027
:10023000020C43FA05F3C01851EBE37101F00045DD
:1002400007D54FF0000EDCF1000C7EEB00006EEBEA
:100250000101B1F5801F1BD3B1F5001F0CD3490874
:100260005FEA30004FEA3C0C04F101044FEA4452CB
:1002700012F5800F80F09A80BCF1004F08BF5FEA52
:10028000500C50F1000041EB045141EA050130BD32
:100290005FEA4C0C404141EB0101013C28BFB1F544
:1002A000801FE9D291F0000F04BF01460020B1FA8F
:1002B00081F308BF2033A3F10B03B3F120020CDA62
:1002C0000C3208DD02F1140CC2F10C0201FA0CF040
:1002D00021FA02F10CE002F11402D8BFC2F1200CA5
:1002E00001FA02F120FA0CFCDCBF41EA0C0190405B
:1002F000E41AA2BF01EB0451294330BD6FEA0404A4
:100300001F3C1CDA0C340EDC04F11404C4F120028E
:1003100020FA04F001FA02F340EA030021FA04F3A0
:1003200045EA030130BDC4F10C04C4F1200220FAF7
:1003300002F001FA04F340EA0300294630BD21FA35
:1003400004F0294630BD94F0000F83F4801306BFFB
:1003500081F480110134013D4EE77FEA645C18BFEF
:100360007FEA655C29D094EA050F08BF90EA020F86
:1003700005D054EA000C04BF1946104630BD91EA7E
:10038000030F1EBF0021002030BD5FEA545C05D181
:100390004000494128BF41F0004130BD14F58004C0
:1003A0003CBF01F5801130BD01F0004545F0FE4134
:1003B00041F470014FF0000030BD7FEA645C1ABF69
:1003C000194610467FEA655C1CBF0B46024650EAA0
:1003D000013406BF52EA033591EA030F41F40021CC
:1003E00030BD00BF90F0000F04BF0021704730B552
:1003F0004FF4806404F132044FF000054FF0000127
:1004000050E700BF90F0000F04BF0021704730B5E7
:100410004FF4806404F1320410F0004548BF4042BC
:100420004FF000013EE700BF42004FEAE2014FEA11
:1004300031014FEA02701FBF12F07F4393F07F4FEC
:1004400081F06051704732F07F4208BF704793F0EF
:100450007F4F04BF41F40021704730B54FF4607402
:1004600001F0004521F000411CE700BF50EA010205
:1004700008BF704730B54FF000050AE050EA0102AE
:1004800008BF704730B511F0004502D5404261EB1E
:1004900041014FF4806404F132045FEA915C3FF45F
:1004A000D8AE4FF003025FEADC0C18BF03325FEAFC
:1004B000DC0C18BF033202EBDC02C2F1200300FAAD
:1004C00003FC20FA02F001FA03FE40EA0E0021FAD2
:1004D00002F11444BDE600BF70B54FF0FF0C4CF4C0
:1004E000E06C1CEA11541DBF1CEA135594EA0C0F72
:1004F00095EA0C0F00F0DEF82C4481EA030621EAAD
:100500004C5123EA4C5350EA013518BF52EA0335E7
:1005100041F4801143F4801338D0A0FB02CE4FF099
:100520000005E1FB02E506F00042E0FB03E54FF0C9
:100530000006E1FB03569CF0000F18BF4EF0010EC1
:10054000A4F1FF04B6F5007F64F5407404D25FEABD
:100550004E0E6D4146EB060642EAC62141EA555170
:100560004FEAC52040EA5E504FEACE2EB4F1FD0CB2
:1005700088BFBCF5E06F1ED8BEF1004F08BF5FEA30
:10058000500E50F1000041EB045170BD06F00046E2
:1005900046EA010140EA020081EA0301B4EB5C048F
:1005A000C2BFD4EB0C0541EA045170BD41F4801187
:1005B0004FF0000E013C00F3AB8014F1360FDEBFAC
:1005C000002001F0004170BDC4F10004203C35DA88
:1005D0000C341BDC04F11404C4F1200500FA05F30B
:1005E00020FA04F001FA05F240EA020001F00042AC
:1005F00021F0004110EBD37021FA04F642EB060122
:100600005EEA430E08BF20EAD37070BDC4F10C044B
:10061000C4F1200500FA04F320FA05F001FA04F20F
:1006200040EA020001F0004110EBD37041F10001FB
:100630005EEA430E08BF20EAD37070BDC4F1200506
:1006400000FA05F24EEA020E20FA04F301FA05F26E
:1006500043EA020321FA04F001F0004121FA04F216
:1006600020EA020000EBD3705EEA430E08BF20EAE6
:10067000D37070BD94F0000F0FD101F00046400020
:1006800041EB010111F4801F08BF013CF7D041EAA2
:10069000060195F0000F18BF704703F000465200A6
:1006A00043EB030313F4801F08BF013DF7D043EA77
:1006B0000603704794EA0C0F0CEA135518BF95EA2D
:1006C0000C0F0CD050EA410618BF52EA4306D1D1B4
:1006D00081EA030101F000414FF0000070BD50EAD3
:1006E000410606BF1046194652EA430619D094EA5D
:1006F0000C0F02D150EA013613D195EA0C0F05D147
:1007000052EA03361CBF104619460AD181EA03019A
:1007100001F0004141F0FE4141F470014FF0000052
:1007200070BD41F0FE4141F4780170BD70B54FF0ED
:10073000FF0C4CF4E06C1CEA11541DBF1CEA13556D
:1007400094EA0C0F95EA0C0F00F0A7F8A4EB05044F
:1007500081EA030E52EA03354FEA013100F0888046
:100760004FEA03334FF0805545EA131343EA12630F
:100770004FEA022245EA111545EA10654FEA0026C4
:100780000EF000419D4208BF964244F1FD0404F57D
:10079000407402D25B084FEA3202B61A65EB0305D9
:1007A0005B084FEA32024FF480104FF4002CB6EB96
:1007B000020E75EB030E22BFB61A754640EA0C0016
:1007C0005B084FEA3202B6EB020E75EB030E22BF56
:1007D000B61A754640EA5C005B084FEA3202B6EB97
:1007E000020E75EB030E22BFB61A754640EA9C0056
:1007F0005B084FEA3202B6EB020E75EB030E22BF26
:10080000B61A754640EADC0055EA060E18D04FEAE3
:10081000051545EA16754FEA06164FEAC30343EA83
:1008200052734FEAC2025FEA1C1CC0D111F4801F50
:100830000BD141EA00014FF000004FF0004CB6E749
:1008400011F4801F04BF01430020B4F1FD0C88BFE8
:10085000BCF5E06F3FF6AFAEB5EB030C04BFB6EBF3
:10086000020C5FEA500C50F1000041EB045170BDE6
:100870000EF0004E4EEA113114EB5C04C2BFD4EB13
:100880000C0541EA045170BD41F480114FF0000E97
:10089000013C90E645EA060E8DE60CEA135594EA13
:1008A0000C0F08BF95EA0C0F3FF43BAF94EA0C0F16
:1008B0000AD150EA01347FF434AF95EA0C0F7FF48B
:1008C00025AF104619462CE795EA0C0F06D152EADF
:1008D00003353FF4FDAE1046194622E750EA4106C3
:1008E00018BF52EA43067FF4C5AE50EA41047FF4D4
:1008F0000DAF52EA43057FF4EBAE12E74FF0FF3C39
:1009000006E000BF4FF0010C02E000BF4FF0010C09
:100910004DF804CD4FEA410C7FEA6C5C4FEA430C82
:1009200018BF7FEA6C5C1BD001B050EA410C0CBFD1
:1009300052EA430C91EA030F02BF90EA020F002033
:10094000704710F1000F91EA030F58BF994208BF9A
:1009500090422CBFD8176FEAE37040F00100704757
:100960004FEA410C7FEA6C5C02D150EA013C07D1AE
:100970004FEA430C7FEA6C5CD6D152EA033CD3D0F9
:100980005DF8040B704700BF8446104662468C46F3
:100990001946634600E000BF01B5FFF7B7FF002826
:1009A00048BF10F1000F01BD4DF808EDFFF7F4FF4F
:1009B0000CBF012000205DF808FB00BF4DF808EDDA
:1009C000FFF7EAFF34BF012000205DF808FB00BFFD
:1009D0004DF808EDFFF7E0FF94BF012000205DF81F
:1009E00008FB00BF4DF808EDFFF7CEFF94BF0120D4
:1009F00000205DF808FB00BF4DF808EDFFF7C4FFCD
:100A000034BF012000205DF808FB00BF4FEA410C15
:100A10007FEA6C5C02D150EA013C0AD14FEA430CF8
:100A20007FEA6C5C02D152EA033C02D14FF0000035
:100A300070474FF0010070474FEA410212F5001273
:100A400015D211D56FF47873B3EB625212D94FEA15
:100A5000C12343F0004343EA505311F0004F23FAFF
:100A600002F018BF404270474FF00000704750EA54
:100A7000013005D111F0004008BF6FF00040704711
:100A80004FF00000704700BF80F0004002E000BF60
:100A900081F0004142001FBF5FEA410392EA030F69
:100AA0007FEA226C7FEA236C6AD04FEA1262D2EBB3
:100AB0001363C1BFD218414048404140B8BF5B42B8
:100AC000192B88BF704710F0004F40F4000020F051
:100AD0007F4018BF404211F0004F41F4000121F067
:100AE0007F4118BF494292EA030F3FD0A2F10102B1
:100AF00041FA03FC10EB0C00C3F1200301FA03F1EF
:100B000000F0004302D5494260EB4000B0F5000F11
:100B100013D3B0F1807F06D340084FEA310102F1D0
:100B20000102FE2A51D2B1F1004F40EBC25008BF82
:100B300020F0010040EA03007047490040EB00004C
:100B4000013A28BFB0F5000FEDD2B0FA80FCACF14D
:100B5000080CB2EB0C0200FA0CF0AABF00EBC2507A
:100B600052421843BCBFD0401843704792F0000F68
:100B700081F4000106BF80F400000132013BB5E7BB
:100B80004FEA41037FEA226C18BF7FEA236C21D031
:100B900092EA030F04D092F0000F08BF0846704796
:100BA00090EA010F1CBF0020704712F07F4F04D164
:100BB000400028BF40F00040704712F100723CBF77
:100BC00000F50000704700F0004343F0FE4040F4A1
:100BD000000070477FEA226216BF08467FEA23635F
:100BE0000146420206BF5FEA412390EA010F40F44A
:100BF000800070474FF0000304E000BF10F0004396
:100C000048BF40425FEA000C08BF704743F096437C
:100C100001464FF000001CE050EA010208BF704797
:100C20004FF000030AE000BF50EA010208BF70471E
:100C300011F0004302D5404261EB41015FEA010C33
:100C400002BF84460146002043F0B64308BFA3F12B
:100C50008053A3F50003BCFA8CF2083AA3EBC2530D
:100C600010DB01FA02FC634400FA02FCC2F120022C
:100C7000BCF1004F20FA02F243EB020008BF20F063
:100C80000100704702F1200201FA02FCC2F12002C9
:100C900050EA4C0021FA02F243EB020008BF20EABE
:100CA000DC7070474FF0FF0C1CEAD0521EBF1CEAEC
:100CB000D15392EA0C0F93EA0C0F6FD01A4480EADA
:100CC000010C400218BF5FEA41211ED04FF00063C3
:100CD00043EA501043EA5111A0FB01310CF00040EF
:100CE000B1F5000F3EBF490041EAD3715B0040EA15
:100CF000010062F17F02FD2A1DD8B3F1004F40EBE5
:100D0000C25008BF20F00100704790F0000F0CF0B7
:100D1000004C08BF49024CEA502040EA51207F3A7B
:100D2000C2BFD2F1FF0340EAC250704740F4000056
:100D30004FF00003013A5DDC12F1190FDCBF00F047
:100D400000407047C2F10002410021FA02F1C2F1F5
:100D5000200200FA02FC5FEA310040F1000053EA91
:100D60004C0308BF20EADC70704792F0000F00F0DF
:100D7000004C02BF400010F4000F013AF9D040EAE5
:100D80000C0093F0000F01F0004C02BF490011F479
:100D9000000F013BF9D041EA0C018FE70CEAD15377
:100DA00092EA0C0F18BF93EA0C0F0AD030F0004CF7
:100DB00018BF31F0004CD8D180EA010000F00040AB
:100DC000704790F0000F17BF90F0004F084691F069
:100DD000000F91F0004F14D092EA0C0F01D14202A3
:100DE0000FD193EA0C0F03D14B0218BF084608D16C
:100DF00080EA010000F0004040F0FE4040F40000B6
:100E0000704740F0FE4040F4400070474FF0FF0C48
:100E10001CEAD0521EBF1CEAD15392EA0C0F93EA8F
:100E20000C0F69D0A2EB030280EA010C49024FEAE1
:100E3000402037D04FF0805343EA111143EA10139A
:100E40000CF000408B4238BF5B0042F17D024FF452
:100E5000000C8B4224BF5B1A40EA0C00B3EB510F2D
:100E600024BFA3EB510340EA5C00B3EB910F24BF16
:100E7000A3EB910340EA9C00B3EBD10F24BFA3EB9B
:100E8000D10340EADC001B0118BF5FEA1C1CE0D163
:100E9000FD2A3FF650AF8B4240EBC25008BF20F016
:100EA000010070470CF0004C4CEA50207F32C2BF6A
:100EB000D2F1FF0340EAC250704740F400004FF007
:100EC0000003013A37E792F0000F00F0004C02BF38
:100ED000400010F4000F013AF9D040EA0C0093F002
:100EE000000F01F0004C02BF490011F4000F013B5C
:100EF000F9D041EA0C0195E70CEAD15392EA0C0FC4
:100F000008D142027FF47DAF93EA0C0F7FF470AFFB
:100F1000084676E793EA0C0F04D14B023FF44CAF3E
:100F200008466EE730F0004C18BF31F0004CCAD1D3
:100F300030F000427FF45CAF31F000437FF43CAF0F
:100F40005FE700BF53B94AB9002908BF00281CBF9A
:100F50004FF0FF314FF0FF3000F068B9ADF1080CF1
:100F60006DE904CE00F006F8DDF804E0DDE90223C7
:100F700004B070472DE9F047089D0C46002B4ED178
:100F800094468C458646B2FA82F262D94AB1C2F1E1
:100F90002003914020FA03F30CFA02FC194300FAF3
:100FA00002FE4FEA1C47B1FBF7F407FB14111FFACE
:100FB0008CF64FEA1E4343EA014304FB06F19942D3
:100FC0000AD91CEB030304F1FF3080F01081994231
:100FD00040F20D81023C6344591AB1FBF7F007FB64
:100FE000101100FB06F61FFA8EF343EA01439E42FE
:100FF0000AD91CEB030300F1FF3180F0FA809E4216
:1010000040F2F7806344023800219B1B40EA044011
:101010001DB1D3400022C5E90032BDE8F0878B4204
:1010200005D90DB1C5E9000100210846F5E7B3FA7D
:1010300083F1002946D1A34202D39042C0F0EE8052
:10104000861A64EB03030120002DE6D0C5E9006396
:10105000E3E7002A40F08F80A1EB0C0401214FEA66
:101060001C481FFA8CF7B4FBF8F608FB164407FB84
:1010700006F04FEA1E4343EA0443984208D91CEBAA
:10108000030306F1FF3402D2984200F2CB802646D9
:101090001C1AB4FBF8F008FB104400FB07F71FFA1A
:1010A0008EF343EA04439F4208D91CEB030300F18B
:1010B000FF3402D29F4200F2AE802046DB1B40EAA2
:1010C0000640A5E7C1F120078B4022FA07FC4CEA55
:1010D000030C24FA07F64FEA1C49B6FBF9F81FFA8D
:1010E0008CFE09FB186620FA07F38C4000FA01FA1F
:1010F00008FB0EF01C43230C43EA0643984202FA15
:1011000001F20AD91CEB030308F1FF3680F081805D
:1011100098427ED9A8F1020863441E1AB6FBF9F37F
:1011200009FB136603FB0EFEA4B244EA0644A6457F
:1011300008D91CEB040403F1FF3066D2A64564D93C
:10114000023B644443EA0840A0FB0283A4EB0E0484
:101150009C42C6461E4650D34DD055B1BAEB0E0345
:1011600064EB060404FA07F7CB401F43CC40C5E903
:101170000074002151E70CFA02FCC2F12003D940AF
:101180004FEA1C4820FA03F300FA02FEB1FBF8F024
:1011900008FB101194401C431FFA8CF7230C43EA00
:1011A000014300FB07F1994208D91CEB030300F14E
:1011B000FF362CD299422AD9023863445B1AB3FB1A
:1011C000F8F108FB1133A4B244EA034401FB07F32E
:1011D000A34208D91CEB040401F1FF3613D2A34249
:1011E00011D902396444E41A41EA00413BE704465C
:1011F000F2E6084608E7C245AFD2B8EB020E63EB51
:101200000C060138A9E73146EDE703469AE7304678
:10121000D4E7B04681E7634402384FE706462346E9
:10122000084611E7023E634432E700BF704700BF43
:1012300080B588B000AF07F1100300221A605A6031
:101240009A60DA602C4B9B692B4A43F01003936140
:10125000294B9B6903F01003FB60FB68264B9B69DD
:10126000254A43F004039361234B9B6903F0040375
:10127000BB60BB68204B9B691F4A43F00803936126
:101280001D4B9B6903F008037B607B6801221021E2
:101290001A4801F0E6FB01220221194801F0E1FBA6
:1012A00010233B6101237B610023BB610223FB61AF
:1012B00007F110031946114801F038FA01233B6188
:1012C00000237B610023BB6107F1100319460C4822
:1012D00001F02CFA02233B6101237B610023BB61F7
:1012E0000223FB6107F110031946054801F01EFABD
:1012F00000BF2037BD4680BD0010024000080140FD
:10130000000C014080B500AF124B134A1A60114B1C
:10131000124A5A600F4B00229A600E4B0022DA608C
:101320000C4B4FF480421A610A4B00225A61094B60
:1013300000229A61074B0022DA61064B00221A62F2
:10134000044801F0A7FB0346002B01D000F078FA17
:1013500000BF80BD0402002000540040801A060037
:1013600080B588B000AF786007F1100300221A60E2
:101370005A609A60DA607B681B68164A934225D1EE
:10138000154B9B69144A43F008039361124B9B6908
:1013900003F00803FB60FB68C0233B6112237B6101
:1013A0000123BB610323FB6107F1100319460B48BE
:1013B00001F0BCF9084BDB69074A43F40013D36121
:1013C000054BDB6903F40013BB60BB6800BF20372B
:1013D000BD4680BD0054004000100240000C01409A
:1013E00080B586B004AF8023FB714FF0FF330293CA
:1013F00001230193FB1D009301236B22D02105489B
:1014000001F08CFC642001F089F800BF0837BD466C
:1014100080BD00BF040200202DE9B04FA8B00CAF82
:1014200001F01AF800F0F8F800F0CAF900F068F9D5
:1014300000F09CF900F036F9FFF7FAFE00F0C6FD67
:10144000614804F0BDFE614B614ADA605F4B0122E6
:101450009A605E4B5F4A5A615C4B10221A615B4B8B
:101460005B4A5A60594B02221A60584B5A4A9A6199
:101470005A4B564A1A605A4804F0A2FE0A230593B2
:101480000023049300230393072302930123019372
:10149000012300934AA3D3E90023504804F025F820
:1014A000504804F08DFE4FF4FA6210214B4803F0CF
:1014B00085FF03464C4A13604C48FFF751FFFFF786
:1014C00021FFFFF78DFF00BF484800F0C1F9034638
:1014D000012BF9D007F118031946444800F044FAEB
:1014E000434804F06DFE4FF47A7001F017F841485C
:1014F00004F066FED7E90834C7E90434D7E90A45A1
:10150000D7E90C89D7E910ABD7E91212C7E9021263
:10151000D7E91401C7E90001BB6D1846FEF784FF47
:1015200002460B46CDE90A23D7E90001CDE90801BF
:10153000D7E90212CDE90612CDE904ABCDE9028963
:10154000CDE90045D7E904232B492C4804F040FE9F
:1015500003462B4A13602A4B1B68DBB24FF4FA6236
:1015600019461E4803F02AFF03461F4A13601E4B0C
:101570001B681946234804F0BBFD2049224804F0AB
:10158000B7FD1F4B1B68DAB24FF4FA631B491348CF
:1015900003F06CFF0346144A13601C4B1B680133B5
:1015A0001A4A1360104B1B681946194804F0A0FD35
:1015B000184804F005FE00BF8CE700BFAFF30080C1
:1015C0008050DE1900000000208B0008F802002087
:1015D000000C0140000801405802002018030020C0
:1015E000308B00084C8B00083004002004020020DF
:1015F0006C8B0008788B00088C8B0008340400206A
:1016000038060020E48B0008F08B00083406002028
:10161000008C0008148C000880B590B000AF07F172
:10162000180328220021184604F0CAFE3B1D0022A0
:101630001A605A609A60DA601A610123BB614FF444
:101640008033FB6100233B620123BB6202237B6387
:101650004FF48033BB634FF4E013FB6307F11803CF
:10166000184602F07DFA0346002B01D000F0E8F89E
:101670000F237B600223BB600023FB604FF4806379
:101680003B6100237B613B1D0221184602F0EAFC0E
:101690000346002B01D000F0D3F800BF4037BD4611
:1016A00080BD000080B500AF124B134A1A60114B89
:1016B000124A5A600F4B00229A600E4B0022DA60E9
:1016C0000C4B4FF480421A610A4B00225A61094BBD
:1016D00000229A61074B0022DA61064B00221A624F
:1016E000044801F0D7F90346002B01D000F0A8F818
:1016F00000BF80BD0402002000540040801A060094
:1017000080B500AF174B184A1A60164B4FF482721F
:101710005A60144B00229A60124B0022DA60114B7F
:1017200000221A610F4B00225A610E4B4FF40072D7
:101730009A610C4B1822DA610A4B00221A62094B9B
:1017400000225A62074B00229A62064B0A22DA6292
:10175000044802F015FE0346002B01D000F070F89B
:1017600000BF80BD580200200030014080B500AFAE
:10177000114B124A1A60104B4FF4E1325A600E4B73
:1017800000229A600C4B0022DA600B4B00221A6197
:10179000094B0C225A61084B00229A61064B002229
:1017A000DA61054803F023FA0346002B01D000F06C
:1017B00047F800BF80BD00BFB002002000380140E4
:1017C00080B485B000AF144B9B69134A43F02003EB
:1017D0009361114B9B6903F02003FB60FB680E4B88
:1017E0009B690D4A43F0040393610B4B9B6903F023
:1017F0000403BB60BB68084B9B69074A43F00803BE
:101800009361054B9B6903F008037B607B6800BF15
:101810001437BD4680BC70470010024080B582B0CE
:1018200000AF7860391D4FF6FF730122034803F0C3
:101830002EFA7B6818460837BD4680BDB0020020EE
:1018400080B400AF72B600BF00BFFDE7000000002B
:1018500080B588B004AF786041493BA3D3E9002349
:10186000C1E900233E493AA3D3E90023C1E9022399
:101870003B4939A3D3E90023C1E90423394932A301
:10188000D3E90023C1E90023364931A3D3E900237A
:10189000C1E90223334930A3D3E90023C1E904237A
:1018A000642302930123019307F10F0300930123A3
:1018B0007522D021786801F02BFBFB7B682B3DD192
:1018C0000023BB73642302930123019307F10E03EA
:1018D000009301236B22D021786801F01FFA0723BF
:1018E000BB73642302930123019307F10E0300935A
:1018F00001231922D021786801F010FA0023BB736C
:10190000642302930123019307F10E030093012343
:101910001C22D021786801F001FA0023BB736423F4
:1019200002930123019307F10E03009301231B226D
:10193000D021786801F0F2F9002300E00123184675
:101940001037BD4680BD00BF000000E04D62503F33
:10195000000000C07493683F000000E051B89E3F53
:1019600040060020880600202DE9B04F94B004AF57
:1019700078603960642302930E23019307F1080312
:10198000009301233B22D021786801F0C1FA3B7A11
:101990001B021AB27B7A1BB213431AB23B681A803D
:1019A000BB7A1B021AB2FB7A1BB213431AB23B6812
:1019B0005A803B7B1B021AB27B7B1BB213431AB2C9
:1019C0003B689A80BB7B1B021AB2FB7B1BB21343A2
:1019D000FB863B7C1B021AB27B7C1BB213431AB200
:1019E0003B681A84BB7C1B021AB2FB7C1BB21343FC
:1019F0001AB23B685A843B7D1B021AB27B7D1BB234
:101A000013431AB23B689A843B68B3F90030184616
:101A1000FEF7F8FC4FF00002954BFEF787FE0246FA
:101A20000B463968C1E902233B68B3F90230184616
:101A3000FEF7E8FC4FF000028D4BFEF777FE024602
:101A40000B463968C1E904233B68B3F904301846F2
:101A5000FEF7D8FC80A3D3E90023FEF767FE024619
:101A60000B463968C1E90623B7F936301846FFF747
:101A7000C5F803467F491846FFF7C8F903467E4973
:101A80001846FFF707F803461A463B681A643B6896
:101A9000B3F920301846FEF7B5FC71A3D3E9002353
:101AA000FEF744FE02460B463968C1E90A233B684B
:101AB000B3F922301846FEF7A5FC69A3D3E9002349
:101AC000FEF734FE02460B463968C1E90C233B6839
:101AD000B3F924301846FEF795FC61A3D3E900233F
:101AE000FEF724FE02460B463968C1E90E2300F0DA
:101AF0000BFD0246614B1B68D31A1846FEF772FCB9
:101B00004FF000025E4BFEF711FE02460B46C7E99E
:101B10000A2300F0F9FC0346584A13603B68B3F906
:101B200000301A463B68B3F9003003FB02F23B6811
:101B3000B3F9043019463B68B3F9043001FB03F3F1
:101B400013441846FEF75EFC02460B461046194643
:101B500006F076FCC7E908014FF000024FF00003E1
:101B6000D7E90801FEF720FF0346002B19D13B6897
:101B7000B3F902301846FEF745FCD7E90823FEF713
:101B8000D5FD02460B461046194606F07DFC36A3ED
:101B9000D3E90023FEF7A0FC02460B46C7E90E235B
:101BA00005E04FF000024FF00003C7E90E233B6849
:101BB000B3F900305B421846FEF724FC82468B46A0
:101BC0003B68B3F904301846FEF71CFC02460B468E
:101BD0005046594606F032FC23A3D3E90023FEF712
:101BE0007BFC02460B46C7E906234FF00002254B5B
:101BF000D7E90601FEF7E2FE0346002B0AD03B6858
:101C0000D3E914014FF000021F4BFEF7F5FE034627
:101C1000002B14D14FF000021B4BD7E90601FEF751
:101C2000EBFE0346002B33D03B68D3E914014FF0A1
:101C30000002144BFEF7C2FE0346002B28D01349C6
:101C4000D7E90623C1E906233968D7E90623C1E9A4
:101C5000142330E0AFF30080000000000029CC40E6
:101C60000000000000606040F8C1631ADCA54C4031
:101C70000000D0400000AA43B81E1242D006002047
:101C800000408F40008056C00080564088060020EB
:101C90003B68D3E90C23D7E90A01CDE90201CDE97C
:101CA0000023D7E906231C4800F03CF802460B4607
:101CB0003968C1E914233B68D3E91423904623F023
:101CC00000494FF00002154B40464946FEF794FE8E
:101CD0000346002B08D03B68D3E90A23144683F05F
:101CE00000453B68C3E90A453B68D3E90C23D7E9C3
:101CF0000A01CDE90201CDE90023D7E90E23084806
:101D000000F010F802460B463968C1E9122300BF03
:101D10004037BD46BDE8B08F8806002000805640A1
:101D200040060020B0B592B000AFF860C7E90023CC
:101D3000FB68D3E90823D7E91601FEF715FA024636
:101D40000B46C7E91023FB68D3E90645D7E9102302
:101D5000D7E91801FEF7C0FB02460B46204629468C
:101D6000FEF704FA02460B46F968C1E90623FB6850
:101D7000D3E90A45FB68D3E91001D7E91823FEF738
:101D8000ABFB02460B4610461946FB68D3E90C2311
:101D9000FEF7EAF902460B4610461946FB68D3E9FE
:101DA0000E23FEF7E1F902460B4610461946FB6882
:101DB000D3E90023FEF7DAF902460B46104619462E
:101DC000D7E91823FEF788FB02460B462046294632
:101DD000FEF7CCF902460B46F968C1E90A23FB6815
:101DE000D3E90C45FB68D3E91001D7E91823FEF7C6
:101DF00073FB02460B4620462946FEF7B5F902461C
:101E00000B46F968C1E90C23FB68D3E90E45FB6872
:101E1000D3E91001D7E91823FEF75EFB02460B4613
:101E200020462946FEF7A0F902460B46F968C1E9AB
:101E30000E23FB68D3E91045FB68D3E90201D7E91B
:101E40001823FEF749FB02460B4620462946FEF7BB
:101E50008DF902460B46F968C1E91023FB68D3E906
:101E60000A01FB68D3E90423FEF780F902460B461A
:101E7000C7E90E23FB68D3E90A01D7E90E23FEF771
:101E800055FC02460B46C7E90423FB68D3E90E0163
:101E9000D7E90E23FEF74AFC02460B46C7E90623A4
:101EA000FB68D3E90623D7E90001FEF75DF9024696
:101EB0000B46C7E90C23FB68D3E90645D7E90401C3
:101EC000D7E90C23FEF708FB02460B4620462946BD
:101ED000FEF74CF902460B46F968C1E90623FB6898
:101EE000D3E90845D7E90601D7E90C23FEF7F4FA50
:101EF00002460B4620462946FEF738F902460B46B5
:101F0000F968C1E90823FB68D3E90A23C7E90A2372
:101F1000FB68D3E90C23C7E90823FB68D3E90A452A
:101F2000D7E90401D7E90A23FEF7D6FA02460B46A1
:101F300020462946FEF718F902460B46F968C1E922
:101F40000A23FB68D3E90C45D7E90401D7E9082344
:101F5000FEF7C2FA02460B4620462946FEF704F970
:101F600002460B46F968C1E90C23FB68D3E90E452C
:101F7000D7E90601D7E90A23FEF7AEFA02460B4677
:101F800020462946FEF7F0F802460B46F968C1E9FB
:101F90000E23FB68D3E91045D7E90601D7E90823EA
:101FA000FEF79AFA02460B4620462946FEF7DCF871
:101FB00002460B46F968C1E91023FB68D3E9062302
:101FC000104619464837BD46B0BD000080B500AF89
:101FD000174B184A1A60164B4FF482725A60144B12
:101FE00000229A60124B0022DA60114B00221A6123
:101FF0000F4B00225A610E4B4FF400729A610C4B4A
:102000001822DA610A4B00221A62094B00225A6236
:10201000074B00229A62064B0722DA62044802F05C
:10202000AFF90346002B01D0FFF70AFC00BF80BDCB
:10203000580200200030014080B483B000AF0E4B46
:102040009B690D4A43F0010393610B4B9B6903F0BD
:1020500001037B607B68084BDB69074A43F08053D0
:10206000D361054BDB6903F080533B603B6800BFE5
:102070000C37BD4680BC70470010024080B588B068
:1020800000AF786007F1100300221A605A609A606E
:10209000DA607B681B68154A934223D1144B9B6915
:1020A000134A43F008039361114B9B6903F0080343
:1020B000FB60FB68C0233B6112237B610323FB6150
:1020C00007F1100319460B4800F030FB084BDB69A1
:1020D000074A43F40013D361054BDB6903F4001393
:1020E000BB60BB6800BF2037BD4680BD00540040C8
:1020F00000100240000C014080B588B000AF78604D
:1021000007F1100300221A605A609A60DA607B6857
:102110001B681B4A93422FD11A4B9B69194A43F4FF
:1021200080539361174B9B6903F48053FB60FB68FA
:10213000144B9B69134A43F004039361114B9B6951
:1021400003F00403BB60BB68A0233B6102237B61F7
:102150000323FB6107F1100319460B4800F0E6FA70
:1021600040233B6100237B610023BB6107F1100327
:102170001946054800F0DAFA00BF2037BD4680BD99
:1021800000300140001002400008014080B588B0D6
:1021900000AF786007F1100300221A605A609A605D
:1021A000DA607B681B681C4A934231D11B4B9B69E8
:1021B0001A4A43F480439361184B9B6903F48043AC
:1021C000FB60FB68154B9B69144A43F00403936161
:1021D000124B9B6903F00403BB60BB684FF40073B0
:1021E0003B6102237B610323FB6107F11003194666
:1021F0000B4800F09BFA4FF480633B6100237B6146
:102200000023BB6107F110031946054800F08EFA60
:1022100000BF2037BD4680BD00380140001002409D
:102220000008014080B400AF00BFFDE780B400AFFC
:1022300000BFFDE780B400AF00BFFDE780B400AF92
:1022400000BFFDE780B400AF00BFFDE780B400AF82
:1022500000BFBD4680BC704780B400AF00BFBD4624
:1022600080BC704780B400AF00BFBD4680BC7047E3
:1022700080B500AF00F036F900BF80BD80B400AF7C
:1022800001231846BD4680BC704780B582B000AFC0
:102290007860396004F0E6F8034616221A604FF0C1
:1022A000FF3318460837BD4680BD80B582B000AF09
:1022B00078604FF0FF317868FFF7E7FF00BFFDE778
:1022C00080B586B000AFF860B9607A6000237B61AA
:1022D0000AE0AFF300800146BB685A1CBA60CAB27C
:1022E0001A707B6901337B617A697B689A42F0DB03
:1022F0007B6818461837BD4680BD80B586B000AFF4
:10230000F860B9607A6000237B6109E0BB685A1C01
:10231000BA601B781846FFF781FA7B6901337B614D
:102320007A697B689A42F1DB7B6818461837BD46AC
:1023300080BD80B483B000AF78604FF0FF331846A3
:102340000C37BD4680BC704780B483B000AF786066
:1023500039603B684FF400525A60002318460C372E
:10236000BD4680BC704780B483B000AF7860012365
:1023700018460C37BD4680BC704780B485B000AFAE
:10238000F860B9607A60002318461437BD4680BCF7
:102390007047000080B586B000AF7860144A154BD6
:1023A000D31A7B617B693B61134B1B68002B02D105
:1023B000114B124A1A60104B1A687B6813443A6931
:1023C0009A4207D204F04EF803460C221A604FF0EE
:1023D000FF3309E0084B1B68FB60074B1A687B68FA
:1023E0001344054A1360FB6818461837BD4680BD84
:1023F0000050002000040000D4060020280800201F
:1024000080B400AF00BFBD4680BC7047FFF7F8FF47
:102410000B480C490C4A002302E0D458C450043342
:10242000C4188C42F9D3094A094C002301E0136017
:102430000432A242FBD304F01BF8FEF7EDFF704715
:1024400000000020E801002060900008E801002062
:1024500028080020FEE7000080B500AF084B1B688D
:10246000074A43F010031360032000F02BF90F20FC
:1024700000F008F8FFF7E0FD0023184680BD00BF1C
:102480000020024080B582B000AF7860124B1A681D
:10249000124B1B7819464FF47A73B3FBF1F3B2FB7E
:1024A000F3F3184600F035F90346002B01D0012361
:1024B0000EE07B680F2B0AD8002279684FF0FF30BE
:1024C00000F00BF9064A7B681360002300E001234B
:1024D00018460837BD4680BD0000002008000020D7
:1024E0000400002080B400AF054B1B781A46054B52
:1024F0001B681344034A136000BFBD4680BC70478D
:1025000008000020D806002080B400AF024B1B68F2
:102510001846BD4680BC7047D806002080B584B000
:1025200000AF7860FFF7F0FFB8607B68FB60FB6886
:10253000B3F1FF3F05D00A4B1B781A46FB681344E2
:10254000FB6000BFFFF7E0FF0246BB68D31AFA68E2
:102550009A42F7D800BF00BF1037BD4680BD00BF0C
:102560000800002080B485B000AF78607B6803F07D
:102570000703FB600C4BDB68BB60BA684FF6FF03D8
:102580001340BB60FB681A02BB68134343F0BF6390
:1025900043F40033BB60044ABB68D36000BF143708
:1025A000BD4680BC704700BF00ED00E080B400AFC6
:1025B000044BDB681B0A03F007031846BD4680BCCA
:1025C000704700BF00ED00E080B483B000AF034669
:1025D0003960FB7197F90730002B0ADB3B68DAB2F0
:1025E0000C4997F907301201D2B20B4483F800234B
:1025F0000AE03B68DAB20849FB7903F00F03043BB9
:102600001201D2B20B441A7600BF0C37BD4680BC13
:10261000704700BF00E100E000ED00E080B489B049
:1026200000AFF860B9607A60FB6803F00703FB61F4
:10263000FB69C3F10703042B28BF0423BB61FB69BB
:102640000433062B02D9FB69033B00E000237B61C6
:102650004FF0FF32BB6902FA03F3DA43BB681A405A
:102660007B699A404FF0FF317B6901FA03F3D9434C
:102670007B680B40134318462437BD4680BC704727
:1026800080B582B000AF78607B68013BB3F1807F9A
:1026900001D301230FE00A4A7B68013B53600F21FD
:1026A0004FF0FF30FFF790FF054B00229A60044B7C
:1026B00007221A60002318460837BD4680BD00BFB8
:1026C00010E000E080B582B000AF78607868FFF776
:1026D00049FF00BF0837BD4680BD80B586B000AF5A
:1026E0000346B9607A60FB7300237B61FFF75EFFEE
:1026F00078617A68B9687869FFF790FF024697F9C0
:102700000F3011461846FFF75FFF00BF1837BD4670
:1027100080BD80B582B000AF78607868FFF7B0FF09
:10272000034618460837BD4680BD000080B48BB014
:1027300000AF7860396000237B6200233B6269E16F
:1027400001227B6A02FA03F3FB613B681B68FA69AA
:102750001340BB61BA69FB699A4240F058813B68FB
:102760005B689A4A93425ED0984A934275D8984AD9
:10277000934258D0964A93426FD8964A934252D089
:10278000944A934269D8944A93424CD0924A9342D5
:1027900063D8924A934246D0904A93425DD8122B16
:1027A0002AD8122B59D801A252F823F02728000862
:1027B0000128000813280008552800085B28000895
:1027C0005B2800085B2800085B2800085B280008DD
:1027D0005B2800085B2800085B2800085B280008CD
:1027E0005B2800085B2800085B2800085B280008BD
:1027F000092800081D280008794A934213D02CE0CC
:102800003B68DB683B6229E03B68DB6804333B6282
:1028100024E03B68DB6808333B621FE03B68DB6811
:102820000C333B621AE03B689B68002B02D1042307
:102830003B6213E03B689B68012B05D108233B6298
:102840007B68FA691A6109E008233B627B68FA69D0
:102850005A6103E000233B6200E000BFBB69FF2B2D
:1028600001D87B6801E07B6804337B61BB69FF2B87
:1028700002D87B6A9B0002E07B6A083B9B003B61BD
:102880007B691A680F213B6901FA03F3DB431A40A5
:10289000396A3B6901FA03F31A437B691A603B68A2
:1028A0005B6803F08053002B00F0B1804D4B9B69B7
:1028B0004C4A43F0010393614A4B9B6903F00103C7
:1028C000BB60BB68484A7B6A9B08023352F82330DE
:1028D000FB607B6A03F003039B000F2202FA03F301
:1028E000DB43FA681340FB607B68404A934213D095
:1028F0007B683F4A93420DD07B683E4A934207D0A3
:102900007B683D4A934201D1032306E0042304E09F
:10291000022302E0012300E000237A6A02F00302AE
:1029200092009340FA681343FB602F497B6A9B082F
:102930000233FA6841F823203B685B6803F4801394
:10294000002B06D02D4B9A682C49BB6913438B6032
:1029500006E02A4B9A68BB69DB43284913408B6029
:102960003B685B6803F40013002B06D0234BDA6846
:102970002249BB691343CB6006E0204BDA68BB6990
:10298000DB431E491340CB603B685B6803F40033B4
:10299000002B06D0194B5A681849BB6913434B608A
:1029A00006E0164B5A68BB69DB43144913404B6081
:1029B0003B685B6803F48033002B21D00F4B1A680F
:1029C0000E49BB6913430B6021E000BF00003210C9
:1029D0000000311000002210000021100000121031
:1029E00000001110001002400000014000080140EA
:1029F000000C01400010014000140140000401409F
:102A00000B4B1A68BB69DB43094913400B607B6AB7
:102A100001337B623B681A687B6A22FA03F3002B5E
:102A20007FF48EAE00BF00BF2C37BD4680BC704720
:102A30000004014080B485B000AF78600B467B8015
:102A40007B689A687B881340002B02D00123FB73BC
:102A500001E00023FB73FB7B18461437BD4680BCA6
:102A6000704780B483B000AF78600B467B8013461C
:102A70007B707B78002B03D07A887B681A6103E037
:102A80007B881A047B681A6100BF0C37BD4680BC86
:102A90007047000080B584B000AF78607B68002B81
:102AA00001D101232BE17B6893F83D30DBB2002B91
:102AB00006D17B68002283F83C207868FFF7DEFAB5
:102AC0007B68242283F83D207B681B681A687B683A
:102AD0001B6822F001021A607B681B681A687B6819
:102AE0001B6842F400421A607B681B681A687B68A6
:102AF0001B6822F400421A6001F0FCFBF8607B685E
:102B00005B68814A934207D8FB68804A934294BF2E
:102B100001230023DBB206E0FB687D4A934294BFA9
:102B200001230023DBB2002B01D00123E7E0FB6887
:102B3000784AA2FB03239B0CBB607B681B685B6825
:102B400023F03F017B681B68BA680A435A607B68C0
:102B50001B681B6A23F03F017B685B686A4A9342EB
:102B600002D8BB68013309E0BB684FF4967202FBE0
:102B700003F3694AA2FB03239B0901337A681268B5
:102B80000B4313627B681B68DB6923F44F4222F01E
:102B9000FF027B685B685C498B4219D8FB68591E51
:102BA0007B685B685B00B1FBF3F3591C40F6FC7378
:102BB0000B40002B0AD0FB68591E7B685B685B00EA
:102BC000B1FBF3F30133C3F30B0351E004234FE0F4
:102BD0007B689B68002B11D1FB68581E7B68596885
:102BE0000B465B000B44B0FBF3F30133C3F30B0361
:102BF000002B0CBF01230023DBB212E0FB68581E40
:102C00007B6859680B469B000B4499000B44B0FB52
:102C1000F3F30133C3F30B03002B0CBF0123002399
:102C2000DBB2002B01D0012322E07B689B68002BE4
:102C30000ED1FB68581E7B6859680B465B000B443D
:102C4000B0FBF3F30133C3F30B0343F400430FE092
:102C5000FB68581E7B6859680B469B000B44990023
:102C60000B44B0FBF3F30133C3F30B0343F44043D2
:102C7000796809681343CB617B681B681B6823F084
:102C8000C0017B68DA697B681B6A1A437B681B6832
:102C90000A431A607B681B689B6823F4034323F094
:102CA000FF037A6811697A68D26811437A681268FA
:102CB0000B4393607B681B68DB6823F0FF017B6834
:102CC0005A697B689B691A437B681B680A43DA6010
:102CD0007B681B681A687B681B6842F001021A60F7
:102CE0007B6800221A647B68202283F83D207B6881
:102CF00000221A637B68002283F83E2000231846D6
:102D00001037BD4680BD00BFA08601007F841E0035
:102D1000FF083D0083DE1B43D34D621080B588B0B1
:102D200002AFF860084611461A4603467B810B46FF
:102D30003B811346FB80FFF7E7FB7861FB6893F864
:102D40003D30DBB2202B40F0D9807B690093192302
:102D500001226D49F86800F0CDFC0346002B01D03C
:102D60000223CCE0FB6893F83C30012B01D1022315
:102D7000C5E0FB68012283F83C20FB681B681B68E8
:102D800003F00103012B07D0FB681B681A68FB687E
:102D90001B6842F001021A60FB681B681A68FB6836
:102DA0001B6822F400621A60FB68212283F83D2030
:102DB000FB68402283F83E20FB6800221A64FB680F
:102DC0003A6A5A62FB68BA8C5A85FB685B8D9AB284
:102DD000FB681A85FB684D4ADA62F8883A89798976
:102DE0007B690193BB6A00930346F86800F004FB1B
:102DF0000346002B52D0012381E07A69B96AF86852
:102E000000F092FD0346002B0DD0FB681B6C042BD9
:102E100007D1FB681B681A68FB681B6842F40072E4
:102E20001A6001236BE0FB685B6A1A78FB681B6819
:102E30001A61FB685B6A5A1CFB685A62FB681B8D4F
:102E4000013B9AB2FB681A85FB685B8D9BB2013B24
:102E50009AB2FB685A85FB681B685B6903F0040340
:102E6000042B1BD1FB681B8D002B17D0FB685B6A02
:102E70001A78FB681B681A61FB685B6A5A1CFB685E
:102E80005A62FB681B8D013B9AB2FB681A85FB688E
:102E90005B8D9BB2013B9AB2FB685A85FB681B8D28
:102EA000002BAAD17A69B96AF86800F085FD03465B
:102EB000002B0DD0FB681B6C042B07D1FB681B6833
:102EC0001A68FB681B6842F400721A60012316E05E
:102ED000FB681B681A68FB681B6842F400721A6082
:102EE000FB68202283F83D20FB68002283F83E2007
:102EF000FB68002283F83C20002300E002231846F0
:102F00001837BD4680BD00BF020010000000FFFF63
:102F100080B58CB002AFF860084611461A460346E9
:102F20007B810B463B811346FB8000233B62FFF70E
:102F3000EBFA7862FB6893F83D30DBB2202B40F06F
:102F400050827B6A0093192301228249F86800F0BD
:102F5000D1FB0346002B01D0022343E2FB6893F828
:102F60003C30012B01D102233CE2FB68012283F8B3
:102F70003C20FB681B681B6803F00103012B07D092
:102F8000FB681B681A68FB681B6842F001021A6044
:102F9000FB681B681A68FB681B6822F400621A60F1
:102FA000FB68222283F83D20FB68402283F83E2004
:102FB000FB6800221A64FB683A6B5A62FB68BA8E9F
:102FC0005A85FB685B8D9AB2FB681A85FB68624A7A
:102FD000DA62F8883A8979897B6A0193BB6B00933E
:102FE0000346F86800F09EFA0346002B01D0012347
:102FF000F8E1FB681B8D002B13D10023FB61FB68FC
:103000001B685B69FB61FB681B689B69FB61FB6973
:10301000FB681B681A68FB681B6842F400721A6040
:10302000CCE1FB681B8D012B1ED1FB681B681A6865
:10303000FB681B6822F480621A6072B600BF00232E
:10304000BB61FB681B685B69BB61FB681B689B69B4
:10305000BB61BB69FB681B681A68FB681B6842F4AC
:1030600000721A6062B635E0FB681B8D022B1ED120
:10307000FB681B681A68FB681B6842F400621A60F0
:1030800072B600BF00237B61FB681B685B697B61D4
:10309000FB681B689B697B617B69FB681B681A681E
:1030A000FB681B6822F480621A6062B612E0FB685B
:1030B0001B681A68FB681B6842F480621A60002370
:1030C0003B61FB681B685B693B61FB681B689B6934
:1030D0003B613B6972E1FB681B8D032B00F21F8192
:1030E000FB681B8D012B23D17A6AB96BF86800F05D
:1030F000ABFC0346002B01D0012373E1FB681B6886
:103100001A69FB685B6AD2B21A70FB685B6A5A1C68
:10311000FB685A62FB681B8D013B9AB2FB681A85FB
:10312000FB685B8D9BB2013B9AB2FB685A8545E117
:10313000FB681B8D022B52D17B6A0093BB6B002274
:103140000649F86800F0D6FA0346002B08D00123A0
:1031500048E100BF020010000000FFFF0400010072
:1031600072B600BFFB681B681A68FB681B6842F4F4
:1031700000721A60FB681B681A69FB685B6AD2B24E
:103180001A70FB685B6A5A1CFB685A62FB681B8DED
:10319000013B9AB2FB681A85FB685B8D9BB2013BD1
:1031A0009AB2FB685A8562B600BFFB681B681A6951
:1031B000FB685B6AD2B21A70FB685B6A5A1CFB68D8
:1031C0005A62FB681B8D013B9AB2FB681A85FB684B
:1031D0005B8D9BB2013B9AB2FB685A85EEE07B6A3D
:1031E0000093BB6B00228149F86800F083FA034624
:1031F000002B01D00123F5E0FB681B681A68FB680F
:103200001B6822F480621A6072B600BFFB681B68FC
:103210001A69FB685B6AD2B21A70FB685B6A5A1C57
:10322000FB685A62FB681B8D013B9AB2FB681A85EA
:10323000FB685B8D9BB2013B9AB2FB685A856C4B75
:103240001B68DB086B4AA2FB03231A0A13469B0088
:103250001344DA00D31A3B623B6A013B3B623B6A90
:10326000002B18D1FB6800221A63FB68202283F828
:103270003D20FB68002283F83E20FB681B6C43F076
:103280002002FB681A6462B600BFFB68002283F864
:103290003C200123A6E0FB681B685B6903F0040384
:1032A000042BD9D1FB681B681A68FB681B6842F4C1
:1032B00000721A60FB681B681A69FB685B6AD2B20D
:1032C0001A70FB685B6A5A1CFB685A62FB681B8DAC
:1032D000013B9AB2FB681A85FB685B8D9BB2013B90
:1032E0009AB2FB685A8562B600BFFB681B681A6910
:1032F000FB685B6AD2B21A70FB685B6A5A1CFB6897
:103300005A62FB681B8D013B9AB2FB681A85FB6809
:103310005B8D9BB2013B9AB2FB685A854EE07A6A9C
:10332000B96BF86800F090FB0346002B01D0012335
:1033300058E0FB681B681A69FB685B6AD2B21A70B6
:10334000FB685B6A5A1CFB685A62FB681B8D013B79
:103350009AB2FB681A85FB685B8D9BB2013B9AB2FF
:10336000FB685A85FB681B685B6903F00403042B48
:1033700024D1FB681B8D032B07D1FB681B681A68DF
:10338000FB681B6822F480621A60FB681B681A697C
:10339000FB685B6AD2B21A70FB685B6A5A1CFB68F6
:1033A0005A62FB681B8D013B9AB2FB681A85FB6869
:1033B0005B8D9BB2013B9AB2FB685A85FB681B8D03
:1033C000002B7FF488AEFB68202283F83D20FB6849
:1033D000002283F83E20FB68002283F83C20002373
:1033E00000E0022318462837BD4680BD04000100D6
:1033F0000000002089B5F81480B588B002AFF860ED
:10340000084611461A4603467B810B463B8113460C
:10341000FB80FB681B681A68FB681B6842F48072BB
:103420001A607B6A00933B6A00224FF00111F86832
:1034300000F060F90346002B0DD0FB681B681B6889
:1034400003F48073B3F5807F03D1FB684FF40072FF
:103450001A6403235FE07B89DBB21A46FB681B68B2
:1034600002F0FE021A617B6A3A6A2D49F86800F0A0
:10347000BBF90346002B01D001234CE000237B6104
:10348000FB681B685B697B61FB681B689B697B61F0
:103490007B697A6A396AF86800F046FA0346002BBD
:1034A0000DD0FB681B6C042B07D1FB681B681A68E6
:1034B000FB681B6842F400721A6001232BE0FB8852
:1034C000012B05D13B89DAB2FB681B681A6121E048
:1034D0003B891B0A9BB2DAB2FB681B681A617A6AE5
:1034E000396AF86800F020FA0346002B0DD0FB681B
:1034F0001B6C042B07D1FB681B681A68FB681B68F0
:1035000042F400721A60012305E03B89DAB2FB68DD
:103510001B681A61002318461837BD4680BD00BFDE
:103520000200010080B588B002AFF860084611467D
:103530001A4603467B810B463B811346FB80FB68A2
:103540001B681A68FB681B6842F480621A60FB689B
:103550001B681A68FB681B6842F480721A607B6AF9
:1035600000933B6A00224FF00111F86800F0C2F8A6
:103570000346002B0DD0FB681B681B6803F48073A7
:10358000B3F5807F03D1FB684FF400721A64032304
:10359000AAE07B89DBB21A46FB681B6802F0FE02D8
:1035A0001A617B6A3A6A5249F86800F01DF90346CD
:1035B000002B01D0012397E000237B61FB681B688F
:1035C0005B697B61FB681B689B697B617B697A6ACD
:1035D000396AF86800F0A8F90346002B0DD0FB68A3
:1035E0001B6C042B07D1FB681B681A68FB681B68FF
:1035F00042F400721A60012376E0FB88012B05D1AA
:103600003B89DAB2FB681B681A6121E03B891B0A1F
:103610009BB2DAB2FB681B681A617A6A396AF86889
:1036200000F082F90346002B0DD0FB681B6C042BC5
:1036300007D1FB681B681A68FB681B6842F40072BC
:103640001A60012350E03B89DAB2FB681B681A61FB
:103650007A6A396AF86800F067F90346002B0DD0E2
:10366000FB681B6C042B07D1FB681B681A68FB689E
:103670001B6842F400721A60012335E0FB681B6886
:103680001A68FB681B6842F480721A607B6A0093B8
:103690003B6A00224FF00111F86800F02BF8034656
:1036A000002B0DD0FB681B681B6803F48073B3F517
:1036B000807F03D1FB684FF400721A64032313E088
:1036C0007B89DBB243F00103DAB2FB681B681A6145
:1036D0007B6A3A6A0649F86800F086F80346002BD0
:1036E00001D0012300E0002318461837BD4680BDF5
:1036F0000200010080B584B000AFF860B9603B60A3
:103700001346FB7148E03B68B3F1FF3F44D0FEF73E
:10371000FBFE0246BB69D31A3A689A4202D33B6861
:10372000002B39D1BB681B0CDBB2012B0DD1FB6820
:103730001B685B69DA43BB6813409BB2002B0CBF6C
:1037400001230023DBB21A460CE0FB681B689B696F
:10375000DA43BB6813409BB2002B0CBF012300234C
:10376000DBB21A46FB799A4216D1FB6800221A6333
:10377000FB68202283F83D20FB68002283F83E206E
:10378000FB681B6C43F02002FB681A64FB68002294
:1037900083F83C20012323E0BB681B0CDBB2012B28
:1037A0000DD1FB681B685B69DA43BB6813409BB2B1
:1037B000002B0CBF01230023DBB21A460CE0FB6890
:1037C0001B689B69DA43BB6813409BB2002B0CBF9C
:1037D00001230023DBB21A46FB799A4293D00023DF
:1037E00018461037BD4680BD80B584B000AFF86084
:1037F000B9607A603B6071E0FB681B685B6903F449
:103800008063B3F5806F23D1FB681B681A68FB687F
:103810001B6842F400721A60FB681B686FF48062D8
:103820005A61FB6800221A63FB68202283F83D205E
:10383000FB68002283F83E20FB681B6C43F0040207
:10384000FB681A64FB68002283F83C20012367E0D0
:103850007B68B3F1FF3F41D0FEF756FE02463B685E
:10386000D31A7A689A4202D37B68002B36D1BB68A0
:103870001B0CDBB2012B0CD1FB681B685B69DA43C4
:10388000BB6813409BB2002B14BF01230023DBB2A3
:103890000BE0FB681B689B69DA43BB6813409BB273
:1038A000002B14BF01230023DBB2002B16D0FB68D2
:1038B00000221A63FB68202283F83D20FB68002267
:1038C00083F83E20FB681B6C43F02002FB681A64FF
:1038D000FB68002283F83C20012321E0BB681B0C1D
:1038E000DBB2012B0CD1FB681B685B69DA43BB6858
:1038F00013409BB2002B14BF01230023DBB20BE06B
:10390000FB681B689B69DA43BB6813409BB2002BC2
:1039100014BF01230023DBB2002B7FF46DAF002323
:1039200018461037BD4680BD80B584B000AFF86042
:10393000B9607A6034E0F86800F0E3F80346002BE1
:1039400001D0012334E0BB68B3F1FF3F28D0FEF77C
:10395000DBFD02467B68D31ABA689A4202D3BB6881
:10396000002B1DD1FB681B685B6903F08003802B73
:1039700016D0FB6800221A63FB68202283F83D20E2
:10398000FB68002283F83E20FB681B6C43F020029A
:10399000FB681A64FB68002283F83C20012307E0DF
:1039A000FB681B685B6903F08003802BC3D1002395
:1039B00018461037BD4680BD80B584B000AFF860B2
:1039C000B9607A6034E0F86800F09BF80346002B99
:1039D00001D0012334E0BB68B3F1FF3F28D0FEF7EC
:1039E00093FD02467B68D31ABA689A4202D3BB6839
:1039F000002B1DD1FB681B685B6903F00403042BDB
:103A000016D0FB6800221A63FB68202283F83D2051
:103A1000FB68002283F83E20FB681B6C43F0200209
:103A2000FB681A64FB68002283F83C20012307E04E
:103A3000FB681B685B6903F00403042BC3D10023FC
:103A400018461037BD4680BD80B584B000AFF86021
:103A5000B9607A6049E0FB681B685B6903F010039A
:103A6000102B19D1FB681B686FF010025A61FB68BC
:103A700000221A63FB68202283F83D20FB680022A5
:103A800083F83E20FB681A6CFB681A64FB6800220E
:103A900083F83C20012330E0FEF736FD02467B68C8
:103AA000D31ABA689A4202D3BB68002B1DD1FB68B7
:103AB0001B685B6903F04003402B16D0FB680022B3
:103AC0001A63FB68202283F83D20FB68002283F8FC
:103AD0003E20FB681B6C43F02002FB681A64FB6805
:103AE000002283F83C20012307E0FB681B685B6928
:103AF00003F04003402BAED1002318461037BD46DB
:103B000080BD80B483B000AF78607B681B685B6960
:103B100003F48063B3F5806F1BD17B681B686FF47F
:103B200080625A617B6800221A637B68202283F8D6
:103B30003D207B68002283F83E207B681B6C43F0AD
:103B400004027B681A647B68002283F83C2001230E
:103B500000E0002318460C37BD4680BC70470000CB
:103B600080B586B000AF78607B68002B01D101235F
:103B700072E27B681B6803F00103002B00F0878072
:103B8000924B5B6803F00C03042B0CD08F4B5B68EB
:103B900003F00C03082B12D18C4B5B6803F48033C9
:103BA000B3F5803F0BD1894B1B6803F40033002B26
:103BB0006CD07B685B68002B68D101234CE27B688A
:103BC0005B68B3F5803F06D1804B1B687F4A43F4A6
:103BD000803313602EE07B685B68002B0CD17B4B3D
:103BE0001B687A4A23F480331360784B1B68774A4A
:103BF00023F4802313601DE07B685B68B3F5A02F7E
:103C00000CD1724B1B68714A43F4802313606F4BD5
:103C10001B686E4A43F4803313600BE06B4B1B68E8
:103C20006A4A23F480331360684B1B68674A23F4A5
:103C3000802313607B685B68002B13D0FEF764FC65
:103C4000386108E0FEF760FC02463B69D31A642B3A
:103C500001D9032300E25D4B1B6803F40033002B02
:103C6000F0D014E0FEF750FC386108E0FEF74CFCA1
:103C700002463B69D31A642B01D90323ECE1534B71
:103C80001B6803F40033002BF0D100E000BF7B6819
:103C90001B6803F00203002B63D04C4B5B6803F0FE
:103CA0000C03002B0BD0494B5B6803F00C03082B73
:103CB0001CD1464B5B6803F48033002B16D1434B79
:103CC0001B6803F00203002B05D07B681B69012BE6
:103CD00001D00123C0E13D4B1B6823F0F8027B6853
:103CE0005B69DB00394913430B603AE07B681B6971
:103CF000002B20D0364B01221A60FEF705FC3861FC
:103D000008E0FEF701FC02463B69D31A022B01D9F9
:103D10000323A1E12D4B1B6803F00203002BF0D01D
:103D20002A4B1B6823F0F8027B685B69DB0027499C
:103D300013430B6015E0264B00221A60FEF7E4FBEC
:103D4000386108E0FEF7E0FB02463B69D31A022B1C
:103D500001D9032380E11D4B1B6803F00203002BF4
:103D6000F0D17B681B6803F00803002B3AD07B6816
:103D70009B69002B19D0174B01221A60FEF7C4FB78
:103D8000386108E0FEF7C0FB02463B69D31A022BFC
:103D900001D9032360E10D4B5B6A03F00203002BA2
:103DA000F0D0012000F0CEFA1CE00A4B00221A608D
:103DB000FEF7AAFB38610FE0FEF7A6FB02463B695F
:103DC000D31A022B08D9032346E100BF001002409A
:103DD0000000424280044242924B5B6A03F00203BD
:103DE000002BE9D17B681B6803F00403002B00F073
:103DF000A6800023FB758B4BDB6903F08053002BFF
:103E00000DD1884BDB69874A43F08053D361854BE2
:103E1000DB6903F08053BB60BB680123FB75824BF9
:103E20001B6803F48073002B18D17F4B1B687E4AFC
:103E300043F480731360FEF767FB386108E0FEF718
:103E400063FB02463B69D31A642B01D9032303E1C8
:103E5000754B1B6803F48073002BF0D07B68DB6824
:103E6000012B06D16F4B1B6A6E4A43F001031362AC
:103E70002DE07B68DB68002B0CD16A4B1B6A694A1A
:103E800023F001031362674B1B6A664A23F00403A5
:103E900013621CE07B68DB68052B0CD1614B1B6A4D
:103EA000604A43F0040313625E4B1B6A5D4A43F0B1
:103EB000010313620BE05B4B1B6A5A4A23F00103B8
:103EC0001362584B1B6A574A23F0040313627B6842
:103ED000DB68002B15D0FEF717FB38610AE0FEF710
:103EE00013FB02463B69D31A41F28832934201D94F
:103EF0000323B1E04B4B1B6A03F00203002BEED00F
:103F000014E0FEF701FB38610AE0FEF7FDFA024615
:103F10003B69D31A41F28832934201D903239BE0D3
:103F2000404B1B6A03F00203002BEED1FB7D012BFB
:103F300005D13C4BDB693B4A23F08053D3617B685E
:103F4000DB69002B00F08780364B5B6803F00C03C5
:103F5000082B61D07B68DB69022B46D1334B0022F2
:103F60001A60FEF7D1FA386108E0FEF7CDFA024692
:103F70003B69D31A022B01D903236DE0294B1B683F
:103F800003F00073002BF0D17B681B6AB3F5803F10
:103F900008D1244B5B6823F400327B689B6821497D
:103FA00013434B601F4B5B6823F474127B68196AE0
:103FB0007B685B6A0B431B4913434B601B4B01221D
:103FC0001A60FEF7A1FA386108E0FEF79DFA024692
:103FD0003B69D31A022B01D903233DE0114B1B6827
:103FE00003F00073002BF0D035E0104B00221A6074
:103FF000FEF78AFA386108E0FEF786FA02463B6966
:10400000D31A022B01D9032326E0064B1B6803F0C9
:104010000073002BF0D11EE07B68DB69012B07D118
:10402000012319E00010024000700040600042428D
:104030000B4B5B68FB60FB6803F480327B681B6A98
:104040009A4206D1FB6803F470127B685B6A9A425D
:1040500001D0012300E0002318461837BD4680BD7B
:104060000010024080B584B000AF786039607B6892
:10407000002B01D10123D0E06A4B1B6803F007033A
:104080003A689A4210D9674B1B6823F007026549CA
:104090003B6813430B60634B1B6803F007033A68EC
:1040A0009A4201D00123B8E07B681B6803F0020349
:1040B000002B20D07B681B6803F00403002B05D085
:1040C000594B5B68584A43F4E06353607B681B6854
:1040D00003F00803002B05D0534B5B68524A43F4AE
:1040E00060535360504B5B6823F0F0027B689B6821
:1040F0004D4913434B607B681B6803F00103002BA1
:1041000040D07B685B68012B07D1474B1B6803F4E9
:104110000033002B15D101237FE07B685B68022B05
:1041200007D1414B1B6803F00073002B09D1012319
:1041300073E03D4B1B6803F00203002B01D1012308
:104140006BE0394B5B6823F003027B685B683649A0
:1041500013434B60FEF7D8F9F8600AE0FEF7D4F994
:104160000246FB68D31A41F28832934201D90323F5
:1041700053E02D4B5B6803F00C027B685B689B008F
:104180009A42EBD1274B1B6803F007033A689A4227
:1041900010D2244B1B6823F0070222493B681343CB
:1041A0000B60204B1B6803F007033A689A4201D06A
:1041B000012332E07B681B6803F00403002B08D066
:1041C000194B5B6823F4E0627B68DB681649134394
:1041D0004B607B681B6803F00803002B09D0124B6F
:1041E0005B6823F460527B681B69DB000E49134354
:1041F0004B6000F021F802460B4B5B681B0903F093
:104200000F030A49CB5C22FA03F3094A1360094BF6
:104210001B681846FEF736F9002318461037BD46CE
:1042200080BD00BF0020024000100240288C000822
:10423000000000200400002080B487B000AF0023FD
:10424000FB600023BB6000237B6100237B600023B5
:104250003B611E4B5B68FB60FB6803F00C03042BA7
:1042600002D0082B03D027E0194B3B6127E0FB6805
:104270009B0C03F00F03174AD35C7B60FB6803F4CD
:104280008033002B10D0114B5B685B0C03F00103F3
:10429000114AD35CBB607B680D4A03FB02F2BB682A
:1042A000B2FBF3F37B6104E07B680C4A02FB03F38F
:1042B0007B617B693B6102E0054B3B6100BF3B6971
:1042C00018461C37BD4680BC704700BF0010024036
:1042D00000127A00408C0008508C000800093D0054
:1042E00080B400AF024B1B681846BD4680BC7047C7
:1042F0000000002080B500AFFFF7F2FF0246054B3B
:104300005B681B0A03F007030349CB5C22FA03F343
:10431000184680BD00100240388C000880B500AF00
:10432000FFF7DEFF0246054B5B68DB0A03F007037D
:104330000349CB5C22FA03F3184680BD001002400B
:10434000388C000880B485B000AF78600A4B1B68D9
:104350000A4AA2FB03235B0A7A6802FB03F3FB60B1
:1043600000BFFB685A1EFA60002BF9D100BF00BFE6
:104370001437BD4680BC704700000020D34D62104A
:1043800080B582B000AF78607B68002B01D101233B
:1043900076E07B685B6A002B08D17B685B68B3F5CD
:1043A000827F09D07B680022DA6105E07B68002209
:1043B0001A617B6800225A617B6800229A627B68DE
:1043C00093F85130DBB2002B06D17B68002283F8D2
:1043D00050207868FDF790FE7B68022283F8512018
:1043E0007B681B681A687B681B6822F040021A60B1
:1043F0007B685B6803F482727B689B6803F4044308
:104400001A437B68DB6803F400631A437B681B690B
:1044100003F002031A437B685B6903F001031A434C
:104420007B689B6903F400731A437B68DB6903F0C4
:1044300038031A437B681B6A03F0800342EA0301D6
:104440007B689B6A03F400527B681B680A431A600E
:104450007B689B691A0C7B681B6802F004025A6037
:104460007B681B68DA697B681B6822F40062DA618A
:104470007B6800225A657B68012283F85120002363
:1044800018460837BD4680BD80B588B000AFF860DB
:10449000B9603B601346FB80FEF736F8F861FB8895
:1044A0007B83FB6893F85130DBB2012B01D00223F0
:1044B0002AE1BB68002B02D0FB88002B01D101232D
:1044C00022E1FB6893F85030012B01D102231BE15C
:1044D000FB68012283F85020FB68032283F85120F7
:1044E000FB6800225A65FB68BA681A63FB68FA88A1
:1044F0009A86FB68FA88DA86FB6800229A63FB6872
:1045000000229A87FB680022DA87FB6800225A643F
:10451000FB6800221A64FB689B68B3F5004F0FD15B
:10452000FB681B681A68FB681B6822F040021A606F
:10453000FB681B681A68FB681B6842F480421A60BB
:10454000FB681B681B6803F04003402B07D0FB6827
:104550001B681A68FB681B6842F040021A60FB681F
:10456000DB68B3F5006F52D1FB685B68002B02D0AB
:104570007B8B012B45D1FB681B6B1A88FB681B6882
:10458000DA60FB681B6B9A1CFB681A63FB68DB8EA6
:104590009BB2013B9AB2FB68DA8632E0FB681B688B
:1045A0009B6803F00203022B12D1FB681B6B1A8875
:1045B000FB681B68DA60FB681B6B9A1CFB681A635C
:1045C000FB68DB8E9BB2013B9AB2FB68DA8618E08F
:1045D000FDF79AFF0246FB69D31A3A689A4203D85C
:1045E0003B68B3F1FF3F02D13B68002B09D1FB6868
:1045F000012283F85120FB68002283F85020032316
:1046000082E0FB68DB8E9BB2002BC7D153E0FB68D6
:104610005B68002B02D07B8B012B47D1FB681A6BA8
:10462000FB681B680C3312781A70FB681B6B5A1CF2
:10463000FB681A63FB68DB8E9BB2013B9AB2FB6896
:10464000DA8633E0FB681B689B6803F00203022BE9
:1046500013D1FB681A6BFB681B680C3312781A7055
:10466000FB681B6B5A1CFB681A63FB68DB8E9BB2F2
:10467000013B9AB2FB68DA8618E0FDF745FF024677
:10468000FB69D31A3A689A4203D83B68B3F1FF3FFB
:1046900002D13B68002B09D1FB68012283F851202D
:1046A000FB68002283F8502003232DE0FB68DB8E9B
:1046B0009BB2002BC6D1FA693968F86800F066FA37
:1046C0000346002B02D0FB6820225A65FB689B68DA
:1046D000002B0AD100237B61FB681B68DB687B61D0
:1046E000FB681B689B687B617B69FB68012283F820
:1046F0005120FB68002283F85020FB685B6D002B83
:1047000001D0012300E0002318462037BD4680BDBC
:1047100080B58AB000AFF860B9607A607B80012311
:104720007B62FDF7F1FE3862FB6893F85130FB774E
:10473000FB685B68BB617B88FB82FB7F012B0CD035
:10474000BB69B3F5827F06D1FB689B68002B02D161
:10475000FB7F042B01D002237FE1BB68002B05D037
:104760007B68002B02D07B88002B01D1012374E1F0
:10477000FB6893F85030012B01D102236DE1FB68F7
:10478000012283F85020FB6893F85130DBB2042BF0
:1047900003D0FB68052283F85120FB6800225A658C
:1047A000FB687A689A63FB687A88DA87FB687A889C
:1047B0009A87FB68BA681A63FB687A88DA86FB68AE
:1047C0007A889A86FB6800221A64FB6800225A6481
:1047D000FB681B681B6803F04003402B07D0FB6895
:1047E0001B681A68FB681B6842F040021A60FB688D
:1047F000DB68B3F5006F7ED1FB685B68002B02D0ED
:10480000FB8A012B6CD1FB681B6B1A88FB681B6849
:10481000DA60FB681B6B9A1CFB681A63FB68DB8E13
:104820009BB2013B9AB2FB68DA8659E0FB681B68D1
:104830009B6803F00203022B1BD1FB68DB8E9BB24B
:10484000002B16D07B6A012B13D1FB681B6B1A88D7
:10485000FB681B68DA60FB681B6B9A1CFB681A63B9
:10486000FB68DB8E9BB2013B9AB2FB68DA860023C1
:104870007B62FB681B689B6803F00103012B19D165
:10488000FB68DB8F9BB2002B14D0FB681B68DA68D7
:10489000FB689B6B92B21A80FB689B6B9A1CFB684F
:1048A0009A63FB68DB8F9BB2013B9AB2FB68DA87A5
:1048B00001237B62FDF728FE02463B6AD31A3A6B5E
:1048C0009A420DD83B6BB3F1FF3F09D0FB68012240
:1048D00083F85120FB68002283F850200323BCE0BA
:1048E000FB68DB8E9BB2002BA0D1FB68DB8F9BB2F9
:1048F000002B9BD182E0FB685B68002B02D0FB8A17
:10490000012B71D1FB681A6BFB681B680C331278A2
:104910001A70FB681B6B5A1CFB681A63FB68DB8E02
:104920009BB2013B9AB2FB68DA865DE0FB681B68CC
:104930009B6803F00203022B1CD1FB68DB8E9BB249
:10494000002B17D07B6A012B14D1FB681A6BFB6814
:104950001B680C3312781A70FB681B6B5A1CFB68BF
:104960001A63FB68DB8E9BB2013B9AB2FB68DA8666
:1049700000237B62FB681B689B6803F00103012B2B
:1049800019D1FB68DB8F9BB2002B14D0FB681B682E
:10499000DA68FB689B6BD2B21A70FB689B6B5A1C7F
:1049A000FB689A63FB68DB8F9BB2013B9AB2FB68A2
:1049B000DA8701237B62FDF7A7FD02463B6AD31A23
:1049C0003A6B9A4203D83B6BB3F1FF3F02D13B6B8A
:1049D000002B09D1FB68012283F85120FB680022DB
:1049E00083F85020032338E0FB68DB8E9BB2002B5A
:1049F0009CD1FB68DB8F9BB2002B97D13A6A396B55
:104A0000F86800F0C3F80346002B08D0FB682022AA
:104A10005A65FB68002283F8502001231DE0FB68E3
:104A20009B68002B0AD100233B61FB681B68DB6895
:104A30003B61FB681B689B683B613B69FB6801222B
:104A400083F85120FB68002283F85020FB685B6DDF
:104A5000002B01D0012300E0002318462837BD4673
:104A600080BD80B483B000AF78607B6893F851302C
:104A7000DBB218460C37BD4680BC704780B588B0A5
:104A800000AFF860B9603B601346FB71FDF73CFD79
:104A90000246BB6A9B1A3A681344FB61FDF734FD7A
:104AA000B861394B1B685B011B0DFA6902FB03F30C
:104AB0007B6154E03B68B3F1FF3F50D0FDF724FD2C
:104AC0000246BB69D31AFA699A4202D9FB69002BE4
:104AD0003DD1FB681B685A68FB681B6822F0E00246
:104AE0005A60FB685B68B3F5827F11D1FB689B68F5
:104AF000B3F5004F04D0FB689B68B3F5806F07D116
:104B0000FB681B681A68FB681B6822F040021A6089
:104B1000FB689B6AB3F5005F0FD1FB681B681A68DE
:104B2000FB681B6822F400521A60FB681B681A6855
:104B3000FB681B6842F400521A60FB68012283F88C
:104B40005120FB68002283F85020032317E07B6983
:104B5000002B01D10023FB617B69013B7B61FB687A
:104B60001B689A68BB681340BA689A420CBF01235D
:104B70000023DBB21A46FB799A429BD100231846E8
:104B80002037BD4680BD00BF0000002080B586B044
:104B900002AFF860B9607A607B680093BB6801225D
:104BA0000221F868FFF76AFF0346002B07D0FB6875
:104BB0005B6D43F02002FB685A65032313E07B68BA
:104BC0000093BB6800228021F868FFF757FF034677
:104BD000002B07D0FB685B6D43F02002FB685A6531
:104BE000032300E0002318461037BD4680BD80B582
:104BF00082B000AF78607B68002B01D1012342E0D6
:104C00007B6893F84130DBB2002B06D17B68002231
:104C100083F840207868FDF7B9FA7B68242283F88E
:104C200041207B681B68DA687B681B6822F40052AD
:104C3000DA60786800F072F97B681B681A697B6833
:104C40001B6822F490421A617B681B685A697B6872
:104C50001B6822F02A025A617B681B68DA687B684D
:104C60001B6842F40052DA607B6800225A647B6859
:104C7000202283F841207B68202283F842207B6831
:104C800000225A63002318460837BD4680BD80B510
:104C90008AB002AFF860B9603B601346FB80002326
:104CA0007B61FB6893F84130DBB2202B75D1BB6888
:104CB000002B02D0FB88002B01D101236EE0FB68A2
:104CC00000225A64FB68212283F84120FDF71CFC76
:104CD0007861FB68FA889A84FB68FA88DA84FB6852
:104CE0009B68B3F5805F08D1FB681B69002B04D17A
:104CF0000023FB61BB68BB6103E0BB68FB61002371
:104D0000BB612EE03B6800937B6900228021F8683C
:104D100000F048F80346002B05D0FB68202283F8FA
:104D2000412003233AE0FB69002B0BD1BB691B88B0
:104D30001A46FB681B68C2F308025A60BB6902335B
:104D4000BB6107E0FB691A78FB681B685A60FB6966
:104D50000133FB61FB68DB8C9BB2013B9AB2FB68C1
:104D6000DA84FB68DB8C9BB2002BCBD13B680093D1
:104D70007B6900224021F86800F014F80346002BFC
:104D800005D0FB68202283F84120032306E0FB685E
:104D9000202283F84120002300E002231846203718
:104DA000BD4680BD80B586B000AFF860B9603B609D
:104DB0001346FB713BE03B6AB3F1FF3F37D0FDF791
:104DC000A3FB02463B68D31A3A6A9A4202D33B6A73
:104DD000002B01D103233AE0FB681B68DB6803F07A
:104DE0000403002B23D0BB68802B20D0BB68402B52
:104DF0001DD0FB681B681B6803F00803082B16D145
:104E000000237B61FB681B681B687B61FB681B6878
:104E10005B687B617B69F86800F01DF8FB6808221D
:104E20005A64FB68002283F8402001230FE0FB68EE
:104E30001B681A68BB681340BA689A420CBF01230A
:104E40000023DBB21A46FB799A42B4D000231846FD
:104E50001837BD4680BD80B495B000AF78607B68E0
:104E60001B680C337B637B6B53E8003F3B633B6BFE
:104E700023F49073FB647B681B680C33FA6C3A6410
:104E8000FB63F96B3A6C41E80023BB63BB6B002BFF
:104E9000E5D17B681B6814333B623B6A53E8003FF3
:104EA000FB61FB6923F00103BB647B681B6814335F
:104EB000BA6CFA62BB62B96AFA6A41E800237B62A3
:104EC0007B6A002BE5D17B681B6B012B19D17B68BA
:104ED0001B680C33FB60FB6853E8003FBB60BB689A
:104EE00023F010037B647B681B680C337A6CBA6117
:104EF0007B617969BA6941E800233B613B69002B1A
:104F0000E5D17B68202283F842207B6800221A6367
:104F100000BF5437BD4680BC7047000080B584B0E8
:104F200000AF78607B681B681B6923F440517B6885
:104F3000DA687B681B680A431A617B689A687B6839
:104F40001B691A437B685B691343BB607B681B6802
:104F5000DB6823F4B05323F00C037A681268B96855
:104F60000B43D3607B681B685B6923F440717B68EB
:104F70009A697B681B680A435A617B681B682C4AE4
:104F8000934203D1FFF7CAF9F86002E0FFF7B2F9E4
:104F9000F860FA6813469B0013449A001A447B6831
:104FA0005B689B00B2FBF3F3224AA2FB03235B097D
:104FB0001901FA6813469B0013449A001A447B684F
:104FC0005B689B00B2FBF3F21A4BA3FB02035B0985
:104FD000642000FB03F3D31A1B013233154AA2FBF2
:104FE00003235B0903F0F0031944FA6813469B009E
:104FF00013449A001A447B685B689B00B2FBF3F28F
:105000000C4BA3FB02035B09642000FB03F3D31AE0
:105010001B013233074AA2FB03235B0903F00F0293
:105020007B681B680A449A6000BF1037BD4680BD8C
:10503000003801401F85EB5180B584B000AF786027
:105040000B46FB707B681B68FA781146184600F027
:10505000C9FA7B681B68184600F0E4FA0346FB7344
:105060007B681B680121184600F081FAFB7B18461B
:105070001037BD4680BD80B582B000AF78600B466A
:10508000FB701346BB707B681B680021184600F05C
:105090006EFA7B681A68FB7863F07F03DBB219460F
:1050A000104600F09FFA7B681B68BA7811461846D4
:1050B00000F098FA7B681B680121184600F057FA47
:1050C00000BF0837BD4680BD80B586B000AFF86030
:1050D0007A601A460B46FB721346BB72BB7A012BF1
:1050E00029D9FB681B680021184600F040FAFB68CC
:1050F0001A68FB7A63F07F03DBB21946104600F0B2
:1051000071FA0023FB750BE0FB681868FB7D7A6879
:1051100013441B78194600F065FAFB7D0133FB75DB
:10512000FA7DBB7A9A42EFD3FB681B6801211846CF
:1051300000F01DFA00E000BF1837BD4680BD00003A
:1051400080B586B000AF7860786800F00DF90F2068
:1051500000F08EFA786800F017F97B68D3E9022333
:105160004FF000004FF00001D90441EA5231D00461
:105170006F4A4FF00003FBF7E5FE02460B46C7E916
:105180000423D7E904014FF000024FF00003020CA2
:1051900042EA01420B0CD3B23B73D7E904014FF052
:1051A00000024FF00003020A42EA01620B0AD3B286
:1051B0007B733B7CBB7307F10C02032306217868E9
:1051C000FFF782FF342239217868FFF754FF7B68AC
:1051D0001B7C1A46574B9B5C1A4609217868FFF7DF
:1051E0004AFF0B220B217868FFF745FF23220C2191
:1051F0007868FFF740FF7B685B7C1A464E4B9B5CF0
:10520000062B47D17B689B7C1A464C4B9B5C1B0151
:10521000DAB27B68DB7C1946494B5B5C5B00DBB236
:105220001344DBB20133DBB21A461D217868FFF765
:1052300022FF7B685B7C1A463F4B9B5C1B01DAB20A
:105240007B681B7D19463F4B5B5C9B00DBB21344C4
:10525000DBB20333DBB21A461E217868FFF70BFF7F
:1052600031217868FFF7E8FE0346FB73FB7B23F0F0
:105270000703FB73FB7B43F00503FB73FB7B1A46C1
:1052800031217868FFF7F7FE0C2237217868FFF7A5
:10529000F2FE29E07B689B7C1A46284B9B5C1B0135
:1052A000DAB27B68DB7C1946254B5B5C5B00DBB2CA
:1052B0001344DBB21A461D217868FFF7DCFE7B68D9
:1052C0005B7C1A461C4B9B5C1B01DAB27B681B7D26
:1052D00019461C4B5B5C9B00DBB21344DBB21A46E5
:1052E0001E217868FFF7C7FE042226217868FFF7A1
:1052F000C2FE08221F217868FFF7BDFE0022202190
:105300007868FFF7B8FE082221217868FFF7B3FE1E
:10531000012241217868FFF7AEFE7B68002283F806
:105320001721786800F010F800BF1837BD4680BD1F
:105330000048E801548C0008588C0008608C000874
:105340006C8C0008708C000880B582B000AF78606B
:10535000092201217868FFF78EFE7B6801229A7589
:1053600000BF0837BD4680BD80B582B000AF786011
:10537000082201217868FFF77EFE7B6800229A757B
:1053800000BF0837BD4680BD80B582B000AF7860F1
:10539000882201217868FFF76EFE00BF0837BD46FE
:1053A00080BD80B582B000AF7860FF22122178689E
:1053B000FFF761FE00BF0837BD4680BD80B586B0EF
:1053C00000AFF8600B467A60FB72FB68FA7A5A7598
:1053D000F868FFF7B5FE87224D21F868FFF74BFE0E
:1053E00000222421F868FFF746FE41224021F86898
:1053F000FFF741FEF868FFF7D4FFF7221121F868A4
:10540000FFF739FEFB7A1A462221F868FFF733FED0
:105410000E21F868FFF710FE0346FB75FB7D1A4668
:105420000D21F868FFF727FE2221F868FFF704FE38
:105430000346BB75BA7DFB7A9A4204D1FB6802220F
:105440009A7501230EE07B68013B7B607B68002B33
:10545000EAD1FB681B68184600F0A0F8F868FFF76F
:105460006FFE002318461837BD4680BD80B584B056
:1054700000AFF860B9603B601346FB71FB79BA6816
:105480000021F868FFF720FE8B220121F868FFF762
:10549000F2FDFB681B68184600F0F5F80346002B88
:1054A0000BD01221F868FFF7C7FDF868FFF779FF06
:1054B000F868FFF749FF012313E03B68013B3B60BD
:1054C0003B68002B09D1FB681B68184600F066F8A2
:1054D000F868FFF735FE002303E0012000F0C8F86C
:1054E000D7E718461037BD4680BD80B584B000AF01
:1054F000F860C7E90023FB681B68184600F022F833
:10550000F968D7E90023C1E90223FB683A7E1A74DF
:10551000FB683A7F5A74FB6897F820209A74FB68FE
:1055200097F82420DA74FB6897F828201A75FB682E
:1055300097F82C205A75F868FFF702FE00BF103765
:10554000BD4680BD80B582B000AF7860012178682B
:1055500000F00DF87B6858687B681B689BB20122DD
:105560001946FDF77EFA00BF0837BD4680BD80B5FD
:1055700082B000AF786039607B6858697B681B69CE
:1055800099B23B68012B0CBF01230023DBB21A4602
:10559000FDF767FA00BF0837BD4680BD80B582B011
:1055A00000AF786001217868FFF7E1FF7B685868F9
:1055B0007B681B689BB200221946FDF752FA012056
:1055C00000F056F87B6858687B681B689BB2012224
:1055D0001946FDF746FA642000F04AF800BF083784
:1055E000BD4680BD80B582B000AF78600B46FB70D1
:1055F00000217868FFF7BBFF7B689869F91C4FF4BE
:105600007A730122FEF740FF00BF7B689B69184652
:10561000FFF727FA0346012BF7D100BF00BF083779
:10562000BD4680BD80B586B002AF78600023FB73B5
:105630000023BB7300217868FFF799FF7B689869A6
:1056400007F10E0207F10F014FF47A730093012363
:10565000FFF75EF800BF7B689B691846FFF701FA09
:105660000346012BF7D1BB7B18461037BD4680BDE2
:1056700080B582B000AF78607868FCF74FFF00BF5C
:105680000837BD4680BD80B582B000AF78607B68CA
:10569000DA687B689B689BB219461046FDF7CAF929
:1056A0000346012B0CBF01230023DBB21846083749
:1056B000BD4680BD002B2DE9F0471D46BBBF03F161
:1056C00000431D4600232D2388B01446B8BF14465E
:1056D000129A109E1370149BDDF84CA023F0200842
:1056E000B8F1460F05D0B8F1450F00D101360223BD
:1056F00000E0032307AA049206AACDE902A2CDE99D
:10570000003622462B4600F07FFFB8F1470F0746D0
:1057100019D1119BDB070ED500EB060900220023EF
:1057200020462946FBF740F908B1CDF81C903022FD
:10573000079B4B451ED33846079B159ADB1B13600E
:1057400008B0BDE8F087B8F1460F00EB0609E5D1D7
:105750000378302B0AD10022002320462946FBF78C
:1057600023F918B9C6F10106CAF80060DAF800306A
:105770009944D3E7591C07911A70D9E7F7B5002966
:10578000B6BF2D232B23494209290270437029DD1E
:105790000DF107031D460A27B1FBF7F61A4607FB72
:1057A0001614303402F8014C0C46632C314603F1D8
:1057B000FF33F1DC3031941E03F8011C2346411CF9
:1057C000AB420AD30DF109039B1AAC4288BF0023F8
:1057D00002330344181A03B0F0BD13F8016B01F84B
:1057E000016FEDE7302330318370C170031DF1E7A5
:1057F0002DE9F04F91B00C46DDF8688016461F4643
:10580000054600F0E5FD036818460893FAF7A0FC8A
:1058100000230E93D8F800300990073323F00703D4
:1058200003F1080294F818A0D4F800B0C8F80020DA
:10583000D3E9008929F000430B93CDF828804FF07D
:10584000FF32DDE90A01C4E912899C4BFBF7DEF85F
:1058500070BBDDE90A014FF0FF32984BFBF7B8F857
:1058600030BB0022002340464946FBF7A7F810B1A1
:105870002D2384F84330924A924BBAF1470F94BFDC
:105880009046984603234FF0000923612BF0040350
:10589000236033462146284600970FAA00F0D4F92A
:1058A000013040F090804FF0FF3011B0BDE8F08F34
:1058B00042464B4640464946FBF7A8F848B14B469E
:1058C000002BB8BF2D23804AB8BF84F843307F4BEC
:1058D000D3E763680AF0DF015A1C3FD106236360F7
:1058E00000224BF48063236006920EAACDE904A245
:1058F0000DAA03920DF13302CDE9013263684246ED
:10590000009328464B460A91FFF7D4FE0A99804639
:1059100047290D9928D1C81C02DB6368994240DDF4
:10592000AAF1020A5FFA8AFA5246013904F15000DC
:105930000D91FFF723FF0E9A81461318012A236168
:1059400002DC2268D20701D5013323619DF8333090
:10595000002B9ED02D2384F843309AE74729BFD1EE
:10596000002BBDD10123BAE7BAF1650FDCD9BAF13A
:10597000660F18D1002963680BDD216113B9226815
:10598000D00702D501330B4423614FF00009A16514
:10599000DCE713B92268D20701D50233F4E701230B
:1059A000F2E74FF0670A0E9B994205DB23682161FD
:1059B000D807EAD54B1CE7E70029CCBF0122C1F18B
:1059C00002021344E0E723685A0507D423694246DC
:1059D00031462846B84701302BD164E7BAF1650F4C
:1059E00040F2DC80D4E9120100220023FAF7DCFF48
:1059F000002833D0012331462846354AB8470130C4
:105A00003FF451AFDDE90D38434502DB2368D80789
:105A10000FD5DDE9082331462846B84701303FF469
:105A200042AF4FF0000908F1FF3804F11A0AC845E7
:105A300009DC23689B0700F10281E0680F9B984214
:105A4000B8BF184631E70123524631462846B847C9
:105A500001303FF428AF09F10109E8E70D9B002B65
:105A600038DC012331462846194AB84701303FF453
:105A70001AAFDDE90D3959EA030302D12368D907CA
:105A8000D7D5DDE9082331462846B84701303FF431
:105A90000AAF4FF0000A04F11A0B0D9B5B4253450D
:105AA00001DC4B4693E701235A4631462846B84766
:105AB00001303FF4F8AE0AF1010AEEE7FFFFEF7F95
:105AC000728C0008768C00087A8C00087E8C0008A6
:105AD000828C0008A36DDDF838A05345A8BF53465B
